:020000040800F2
:100000006806002089010008BD050008C903000832
:100010007D04000843020008FD0B000800000000FA
:1000200000000000000000000000000001090008BE
:100030004702000800000000BD080008ED090008A4
:10004000A3010008A3010008A3010008A301000800
:10005000A3010008A3010008A3010008A3010008F0
:10006000A3010008A3010008A3010008A3010008E0
:10007000A3010008A3010008A3010008A3010008D0
:10008000A3010008A3010008A3010008A3010008C0
:10009000A3010008A3010008A3010008A3010008B0
:1000A000A3010008A3010008A3010008A3010008A0
:1000B000510A0008A3010008A3010008A3010008D9
:1000C000A3010008A3010008A3010008A301000880
:1000D000A3010008A3010008A3010008A301000870
:1000E000A3010008A3010008A301000800F002F822
:1000F00000F03AF80AA090E8000C82448344AAF188
:100100000107DA4501D100F02FF8AFF2090EBAE885
:100110000F0013F0010F18BFFB1A43F0010318473B
:100120006C1100008C110000103A24BF78C878C10F
:10013000FAD8520724BF30C830C144BF04680C60ED
:10014000704700000023002400250026103A28BF35
:1001500078C1FBD8520728BF30C148BF0B60704739
:100160001FB51FBD10B510BD00F031F81146FFF7E7
:10017000F7FF00F045FD00F04FF803B4FFF7F2FF82
:1001800003BC00F057F800000948804709480047C1
:10019000FEE7FEE7FEE7FEE7FEE7FEE7FEE7FEE737
:1001A000FEE7FEE704480549054A064B7047000094
:1001B000F1090008ED000008680000206806002032
:1001C000680200206802002070477047704775463B
:1001D00000F02CF8AE4605006946534620F00700B3
:1001E000854618B020B5FFF7DDFFBDE820404FF091
:1001F00000064FF000074FF000084FF0000B21F011
:100200000701AC46ACE8C009ACE8C009ACE8C009DD
:10021000ACE8C0098D46704710B50446AFF30080C6
:100220002046BDE81040FFF7A8BF00000048704717
:100230000800002001491820ABBEFEE7260002009E
:10024000704700BFFEE7704700B5034603E04FF478
:100250007A7000F005F8181EA3F10103F7D100BD74
:1002600000EBC001C9004FF0E02251610021916113
:100270000521116100BF4FF0E021096901F48031CF
:100280000029F8D004214FF0E022116170472DE9D8
:10029000F04102460025002600200023002400270C
:1002A00091F803C00CF00F0591F803C00CF0100C8E
:1002B000BCF1000F03D091F802C04CEA050591F89B
:1002C00000C0BCF1000F31D0146800202BE04FF0CB
:1002D000010C0CFA00F3B1F800C00CEA03069E42D0
:1002E00020D183004FF00F0C0CFA03F7BC4305FA42
:1002F00003FC4CEA040491F803C0BCF1280F06D1BA
:100300004FF0010C0CFA00FCC2F814C00AE091F89E
:1003100003C0BCF1480F05D14FF0010C0CFA00FCF2
:10032000C2F810C0401C0828D1D31460B1F800C036
:10033000BCF1FF0F34DD546800202EE000F1080C02
:100340004FF0010808FA0CF3B1F800C00CEA0306FC
:100350009E4221D183004FF00F0C0CFA03F7BC43EF
:1003600005FA03FC4CEA040491F803C0BCF1280F21
:1003700005D100F1080C08FA0CF8C2F8148091F8C5
:1003800003C0BCF1480F07D100F1080C4FF0010881
:1003900008FA0CF8C2F81080401C0828CED354602C
:1003A000BDE8F0810246002093680B400BB10120AC
:1003B00000E00020704741617047016170470AB159
:1003C000016100E04161704700BFFEE710B5012404
:1003D000A1020948FFF7E6FF04465CB91420FFF7C5
:1003E00033FF4FF480610448FFF7DCFF04460CB98B
:1003F000002010BD2046FCE7000C014008B501219B
:10040000082000F06DFA4FF48060ADF80000032082
:100410008DF8020048208DF8030069460148FFF777
:1004200036FF08BD000C014008B50121042000F092
:1004300057FA8020ADF8000003208DF8020010204C
:100440008DF8030069460448FFF721FF8021024828
:10045000FFF7B3FF08BD00000008014010B5802180
:100460000148FFF7AAFF10BD0008014010B5802128
:100470000148FFF7A0FF10BD0008014000BFFEE7E4
:10048000002001E0411CC8B20A28FBDB70470000D5
:1004900008B50121082000F023FA0121082000F00E
:1004A0001FFA14208DF8030003208DF8020080202D
:1004B000ADF8000069460848FFF7E9FE4020ADF8B6
:1004C000000069460448FFF7E2FE012000F062F8F0
:1004D000012000F069F808BD000C014010B5802132
:1004E0000148FFF75FFF10BD000C014010B501246B
:1004F000012000F059F8FFF7C3FF012000F04AF88F
:10050000FFF7BEFFFFF7EAFF00B90024002000F06C
:1005100041F8FFF7B5FF204610BD70B50546002431
:1005200013E005FA04F1C1F3C01000F03DF8FFF745
:10053000A7FF012000F02EF8FFF7A2FF002000F037
:1005400029F8FFF79DFF601CC4B2082CE9DB70BDE1
:1005500010B5012000F028F8012000F01BF8FFF78B
:100560008FFF002000F020F8FFF78AFF002000F046
:1005700011F8FFF785FF10BD10B5002000F014F84A
:10058000012000F007F8FFF77BFF012000F00CF8D6
:1005900010BD000010B50446224640210148FFF777
:1005A0000EFF10BD000C014010B50446224680210C
:1005B0000148FFF704FF10BD000C01407047000028
:1005C00070B5002100230F22C47804B3154C2468B1
:1005D00004F4E064C4F5E064210AC1F10403CA40F4
:1005E000447804FA03F184781440214309010E4C45
:1005F0000678A155047804F01F050124AC40057865
:100600006D11AD0005F1E025C5F8004109E0047861
:1006100004F01F050124AC40044D0678761145F81E
:10062000264070BD0CED00E000E400E080E100E059
:1006300002490143024A1160704700000000FA05B8
:100640000CED00E070B500240EE00021204600F023
:1006500063F8002504E0002000F009F9681CC5B229
:10066000802DF8DB601CC4B2082CEEDB70BD10B529
:10067000FFF70EFFAE2000F0D3F8D52000F0D0F841
:10068000802000F0CDF8A82000F0CAF83F2000F04C
:10069000C7F8D32000F0C4F8002000F0C1F84020D3
:1006A00000F0BEF8A12000F0BBF8C82000F0B8F8B8
:1006B000DA2000F0B5F8122000F0B2F8812000F046
:1006C000AFF8CF2000F0ACF8D92000F0A9F8F12065
:1006D00000F0A6F8DB2000F0A3F8302000F0A0F82E
:1006E000A42000F09DF8A62000F09AF88D2000F0DC
:1006F00097F8142000F094F8AF2000F091F8FFF77D
:10070000A1FF10BD10B50246012000E050430B1EB2
:10071000A1F10101FAD110BD70B505460C4605F0F6
:10072000070141F0B00000F07BF8102141EA1410FD
:1007300000F076F804F00F0000F072F870BD0000D1
:100740002DE9F04706460F461546701E40064FEA53
:100750001068781EC0064FEA106949464046FFF708
:10076000DBFF002409E0A5F12001114A02EB011191
:10077000085D00F07CF8601CC4B2082CF3DB08F1C3
:100780000101C8B24946FFF7C7FF00240BE0A5F1FD
:100790002001074A02EB011204F10801505C00F04D
:1007A00066F8601CC4B2082CF1DBBDE8F0870000DD
:1007B0009C0C00082DE9F04780460E4617461D4662
:1007C000002415E0281B411E0A20FFF79BFFB7FB02
:1007D000F0F00A21B0FBF1F201FB120000F1300948
:1007E0003019C1B24A464046FFF7AAFF601CC4B2A6
:1007F000AC42E7DBBDE8F0872DE9F04107460E4645
:100800001546002407E02A5D3019C1B23846FFF7CB
:1008100097FF601CC4B2285D0028F4D1BDE8F081C8
:1008200010B50446FFF794FEFFF72AFE7820FFF785
:1008300074FEFFF75BFE10B1FFF79EFE10BD0020B7
:10084000FFF76BFEFFF752FE10B1FFF795FEF5E7DD
:100850002046FFF762FEFFF749FE10B1FFF78CFE5E
:10086000ECE7FFF789FEFFF70BFE00BFE6E710B5E8
:100870000446FFF76DFEFFF703FE7820FFF74DFEFD
:10088000FFF734FE10B1FFF777FE10BD4020FFF7F1
:1008900044FEFFF72BFE10B1FFF76EFEF5E7204692
:1008A000FFF73BFEFFF722FE10B1FFF765FEECE716
:1008B000FFF762FEFFF7E4FD00BFE6E770470000C8
:1008C00029B1064AD2690243044BDA6104E0034AC3
:1008D000D2698243014BDA61704700000010024088
:1008E00029B1064A92690243044B9A6104E0034A23
:1008F00092698243014B9A617047000000100240E8
:10090000704710B500F002F810BD00000CB50020D3
:10091000019000903348006840F48030314908600D
:1009200000BF3048006800F4003000900198401C7F
:100930000190009818B90198B0F5A06FF1D129483D
:10094000006800F4003010B10120009001E00020A8
:1009500000900098012843D12348006840F010001F
:10096000214908600846006820F003000860084636
:10097000006840F0020008601A4840681949486061
:100980000846406848600846406840F48060486017
:100990000846406820F47C1048600846406840F4EF
:1009A000E81048600846006840F08070086000BFAA
:1009B0000C48006800F000700028F9D00948406831
:1009C00020F00300074948600846406840F00200F4
:1009D000486000BF0348406800F00C000828F9D1C7
:1009E0000CBD0000001002400020024070470000D3
:1009F00010B51348006840F001001149086008462E
:100A00004068104908400E494860084600680E4991
:100A100008400B4908600846006820F48020086000
:100A20000846406820F4FE0048604FF41F008860CC
:100A3000FFF767FF4FF000600449086010BD000039
:100A4000001002400000FFF8FFFFF6FE08ED00E096
:100A500010B50121880700F024F8012808D10548C5
:100A60000068401C034908600121880700F007F86E
:100A700010BD000000000020CA4302827047CA4334
:100A80000282704721B1028842F00102028004E034
:100A900002884FF6FE731A40028070470146888C28
:100AA000704730B50246002000230024158A05EA6D
:100AB0000103958905EA010413B10CB1012000E09E
:100AC000002030BD1AB183890B43838102E0838902
:100AD0008B438381704701894FF6F8721140018181
:100AE00070470000002202881D4B98420ED01D4B1B
:100AF00098420BD0B0F1804F08D01B4B984205D0E4
:100B00001A4B984202D01A4B984204D14FF68F7379
:100B10001A404B881A43174B984207D0164B9842FD
:100B200004D04FF6FF431A40CB881A4302808B88CB
:100B300083850B8803850A4B98420BD0094B98425A
:100B400008D00E4B984205D00D4B984202D00D4B69
:100B5000984201D10B7A03860123838270470000FB
:100B6000002C014000340140000400400008004017
:100B7000000C004000100040001400400040014004
:100B800000440140004801401FB501210846FFF71D
:100B900097FE4FF08040FFF79EFF0020ADF8060063
:100BA00042F20F70ADF8080041F61F40ADF80400A6
:100BB00001A94FF08040FFF795FF01218807FFF75B
:100BC0005BFF012211469007FFF77CFF4FF4A06006
:100BD000FFF72EFD1C208DF8000001208DF803008A
:100BE00002208DF8010001208DF802006846FFF711
:100BF000E7FC01218807FFF745FF1FBD00BFFEE7A7
:100C0000FFF735FDFFF7FAFBFFF7BEFFFFF70CFC20
:100C10001AA201210846FFF7EFFD1BA201210220C5
:100C2000FFF7EAFD1AA201210320FFF7E5FD24E00A
:100C30004FF08040FFF732FF41F28831884202DAFC
:100C4000FFF714FC01E0FFF709FCFFF7BFFB10B949
:100C50000020114908604FF08040FFF71FFF044655
:100C60000523224619460220FFF7A4FD05230A4862
:100C7000194602680320FFF79DFDD9E753686F7797
:100C800020436F756E743A00436E743A00000000A2
:100C90005365633A000000000000002000000000DF
:100CA000000000000000000000000000000000F84C
:100CB00000000000000000333000000000100C06AF
:100CC000100C0600000000000000000040C078404A
:100CD000C0784000043F04043F040400007088FC16
:100CE00008300000001820FF211E0000F008F0006E
:100CF000E018000000211C031E211E0000F00888DF
:100D0000700000001E2123241927211010160E0048
:100D1000000000000000000000000000000000E0F3
:100D20001804020000000007182040000002041808
:100D3000E00000000040201807000000404080F064
:100D4000804040000202010F01020200000000F09A
:100D5000000000000101011F01010100000000006E
:100D60000000000080B070000000000000000000E3
:100D7000000000000001010101010101000000006C
:100D80000000000000303000000000000000000003
:100D900080601804006018060100000000E01008E0
:100DA0000810E000000F102020100F00001010F8B5
:100DB000000000000020203F2020000000700808F4
:100DC0000888700000302824222130000030088874
:100DD000884830000018202020110E000000C0209C
:100DE00010F8000000070424243F240000F80888BD
:100DF000880808000019212020110E0000E010884A
:100E000088180000000F112020110E00003808087B
:100E1000C83808000000003F00000000007088088B
:100E200008887000001C222121221C0000E010080C
:100E30000810E0000000312222110F00000000C065
:100E4000C000000000000030300000000000008002
:100E500000000000000080600000000000008040F2
:100E6000201008000001020408102000404040400B
:100E7000404040000404040404040400000810205E
:100E800040800000002010080402010000704808A3
:100E90000808F0000000003036010000C030C8280B
:100EA000E810E0000718272423140B000000C038C6
:100EB000E0000000203C23020227382008F8888840
:100EC00088700000203F202020110E00C03008084C
:100ED00008083800071820202010080008F8080823
:100EE0000810E000203F202020100F0008F888881C
:100EF000E8081000203F20202320180008F88888E8
:100F0000E8081000203F200003000000C03008085F
:100F10000838000007182020221E020008F80800E8
:100F20000008F808203F210101213F20000808F8AF
:100F3000080800000020203F2020000000000808D2
:100F4000F8080800C08080807F00000008F888C092
:100F500028180800203F20012638200008F8080043
:100F600000000000203F20202020300008F8F8007A
:100F7000F8F80800203F003F003F200008F830C08C
:100F80000008F808203F200007183F00E01008087C
:100F90000810E0000F10202020100F0008F80808AB
:100FA0000808F000203F210101010000E0100808BE
:100FB0000810E0000F18242438504F0008F88888E3
:100FC00088887000203F2000030C302000708808C3
:100FD000080838000038202121221C00180808F8D1
:100FE000080818000000203F2000000008F8080052
:100FF0000008F808001F202020201F000878880023
:1010000000C83808000007380E010000F80800F892
:101010000008F800033C0700073C0300081868803C
:101020008068180820302C03032C30200838C800B2
:10103000C83808000000203F200000001008080801
:10104000C83808002038262120201800000000FEA3
:10105000020202000000007F40404000000C30C04F
:1010600000000000000000010638C000000202027B
:10107000FE000000004040407F000000000004022D
:101080000202040000000000000000000000000058
:101090000000000080808080808080800002020448
:1010A0000000000000000000000000000000808040
:1010B000808000000019242222223F2008F80080AE
:1010C00080000000003F112020110E000000008071
:1010D00080800000000E1120202011000000008000
:1010E0008088F800000E112020103F200000808032
:1010F00080800000001F222222221300008080F046
:10110000888888180020203F202000000000808070
:1011100080808000006B94949493600008F80080B5
:1011200080800000203F210000203F200080989810
:10113000000000000020203F202000000000008070
:101140009898000000C08080807F000008F80000B0
:1011500080808000203F24022D302000000808F805
:10116000000000000020203F2020000080808080C0
:1011700080808000203F20003F20003F8080008052
:1011800080800000203F210000203F200000808060
:1011900080800000001F202020201F008080008011
:1011A0008000000080FFA12020110E0000000080C0
:1011B00080808000000E112020A0FF8080808000B1
:1011C0008080800020203F212000010000008080DE
:1011D000808080000033242424241900008080E0D3
:1011E000808000000000001F2020000080800000A0
:1011F00000808000001F202020103F208080800081
:101200000080808000010E30080601008080008090
:10121000008080800F300C030C300F0000808000B5
:10122000808080000020312E0E31200080808000E0
:101230000080808080818E70180601000080808090
:10124000808080000021302C22213000000000002E
:10125000807C020200000000003F404000000000CF
:10126000FF00000000000000FF0000000002027C00
:10127000800000000040403F000000000006010127
:10128000020204040000000000000000AC1200088C
:10129000000000200800000028010008B412000827
:1012A0000800002060060000440100080000000063
:0412B000000000003A
:04000005080000ED02
:00000001FF
