:020000040800F2
:10000000680600208901000851060008E90500087B
:100010004D060008A50200084D0800080000000079
:10002000000000000000000000000000FD060008C5
:100030001D03000800000000D9060008E9070008B9
:10004000A3010008A3010008A3010008A301000800
:10005000A3010008A3010008A3010008A3010008F0
:10006000A3010008A3010008A3010008A3010008E0
:10007000A3010008A3010008A3010008A3010008D0
:10008000A3010008A3010008A3010008A3010008C0
:10009000A3010008A3010008A3010008A3010008B0
:1000A000A3010008A3010008A3010008A3010008A0
:1000B000A3010008A3010008A3010008A301000890
:1000C000A3010008A3010008A3010008A301000880
:1000D000A3010008A3010008A3010008A301000870
:1000E00065030008A3010008A301000800F002F85E
:1000F00000F03AF80AA090E8000C82448344AAF188
:100100000107DA4501D100F02FF8AFF2090EBAE885
:100110000F0013F0010F18BFFB1A43F0010318473B
:100120005C0700007C070000103A24BF78C878C143
:10013000FAD8520724BF30C830C144BF04680C60ED
:10014000704700000023002400250026103A28BF35
:1001500078C1FBD8520728BF30C148BF0B60704739
:100160001FB51FBD10B510BD00F031F81146FFF7E7
:10017000F7FF00F06DFB00F04FF803B4FFF7F2FF5C
:1001800003BC00F057F800000948804709480047C1
:10019000FEE7FEE7FEE7FEE7FEE7FEE7FEE7FEE737
:1001A000FEE7FEE704480549054A064B7047000094
:1001B000ED070008ED000008680000206806002038
:1001C000680200206802002070477047704775463B
:1001D00000F02CF8AE4605006946534620F00700B3
:1001E000854618B020B5FFF7DDFFBDE820404FF091
:1001F00000064FF000074FF000084FF0000B21F011
:100200000701AC46ACE8C009ACE8C009ACE8C009DD
:10021000ACE8C0098D46704710B50446AFF30080C6
:100220002046BDE81040FFF7A8BF00000048704717
:100230000400002001491820ABBEFEE726000200A2
:100240007047000008B50121082000F047FA4FF47C
:100250000070ADF8000003208DF8020010208DF82A
:1002600003006946044800F021F94FF40071024888
:1002700000F0B2F908BD0000000C014010B54FF4C9
:100280000071024800F0A6F910BD0000000C01400A
:1002900010B54FF40071024800F09EF910BD000047
:1002A000000C014000BFFEE71FB50121092000F04E
:1002B00015FA4FF40060ADF80C0003208DF80E0025
:1002C00048208DF80F0003A9134800F0EFF80B2128
:1002D000012000F0CBF84FF40060019008208DF869
:1002E000090000208DF8080001208DF80A0001A8FF
:1002F00000F072F84FF4A06000F0E4F928208DF8C7
:10030000000001208DF801008DF802008DF8030037
:10031000684600F09FF91FBD000C0140704700B512
:10032000034603E04FF47A7000F005F8181EA3F1BD
:100330000103F7D100BD00EBC001C9004FF0E0227E
:100340005161002191610521116100BF4FF0E02151
:10035000096901F480310029F8D004214FF0E0222E
:100360001161704710B54FF4006000F021F80128CA
:1003700013D11420FFF7D3FF4FF40061074800F0BA
:1003800020F9012802D10649087002E00020044942
:1003900008704FF4006000F005F810BD000C01403B
:1003A000000000200149086070470000140401406B
:1003B000014600200022074B1B6803EA0102054B9F
:1003C00014331B680B4013B10AB1012000E0002078
:1003D0007047000000040140002123498279002A6F
:1003E0003AD00A46126803689A430B461A600A1DFF
:1003F000126803689A430B1D1A60027911440A6857
:1004000003681A430A60184A0832126803689A435C
:10041000154B08331A601A1D126803689A43124B71
:100420000C331A604279102A0ED11A1F1268036821
:100430001A430D4B08331A601A1D126803681A43D9
:10044000094B0C331A600DE00749427911440A68E0
:1004500003681A430A6005E0027911440A680368D8
:100460009A430A60704700000004014030B5002242
:100470008B071C0F0F2303FA04F20B4B8C1053F85D
:1004800024309343084C8D1044F8253023468C10BB
:1004900053F824308C07240F00FA04F42343024C51
:1004A0008D1044F8253030BD080001402DE9F041A1
:1004B000024600250026002000230024002791F892
:1004C00003C00CF00F0591F803C00CF0100CBCF148
:1004D000000F03D091F802C04CEA050591F800C066
:1004E000BCF1000F31D0146800202BE04FF0010C5C
:1004F0000CFA00F3B1F800C00CEA03069E4220D1CA
:1005000083004FF00F0C0CFA03F7BC4305FA03FC11
:100510004CEA040491F803C0BCF1280F06D14FF057
:10052000010C0CFA00FCC2F814C00AE091F803C0F8
:10053000BCF1480F05D14FF0010C0CFA00FCC2F8D9
:1005400010C0401C0828D1D31460B1F800C0BCF121
:10055000FF0F34DD546800202EE000F1080C4FF04E
:10056000010808FA0CF3B1F800C00CEA03069E4239
:1005700021D183004FF00F0C0CFA03F7BC4305FAAE
:1005800003FC4CEA040491F803C0BCF1280F05D128
:1005900000F1080C08FA0CF8C2F8148091F803C0B6
:1005A000BCF1480F07D100F1080C4FF0010808FA20
:1005B0000CF8C2F81080401C0828CED35460BDE867
:1005C000F0810246002093680B400BB1012000E04F
:1005D0000020704741617047016170470148007811
:1005E000704700000000002000BFFEE708B50121B1
:1005F000102000F073F84FF40050ADF80000032015
:100600008DF8020010208DF8030069460448FFF7BA
:100610004DFF4FF400510248FFF7DEFF08BD000018
:100620000010014010B54FF400510248FFF7D4FF0D
:1006300010BD00000010014010B54FF400510248F9
:10064000FFF7C8FF10BD00000010014000BFFEE72B
:100650007047000070B5002100230F22C47804B356
:10066000154C246804F4E064C4F5E064210AC1F187
:100670000403CA40447804FA03F184781440214307
:1006800009010E4C0678A155047804F01F050124D9
:10069000AC4005786D11AD0005F1E025C5F80041CD
:1006A00009E0047804F01F050124AC40044D0678ED
:1006B000761145F8264070BD0CED00E000E400E046
:1006C00080E100E002490143024A116070470000E6
:1006D0000000FA050CED00E07047000029B1064A61
:1006E00092690243044B9A6104E0034A926982438F
:1006F000014B9A617047000000100240704710B52E
:1007000000F002F810BD00000CB500200190009030
:100710003348006840F480303149086000BF3048F9
:10072000006800F4003000900198401C019000988F
:1007300018B90198B0F5A06FF1D12948006800F40C
:10074000003010B10120009001E0002000900098DE
:10075000012843D12348006840F010002149086077
:100760000846006820F0030008600846006840F072
:10077000020008601A484068194948600846406805
:1007800048600846406840F4806048600846406819
:1007900020F47C1048600846406840F4E810486047
:1007A0000846006840F08070086000BF0C48006890
:1007B00000F000700028F9D00948406820F00300DC
:1007C000074948600846406840F00200486000BFA2
:1007D0000348406800F00C000828F9D10CBD000067
:1007E00000100240002002407047000010B513487E
:1007F000006840F00100114908600846406810494F
:1008000008400E494860084600680E4908400B49F8
:1008100008600846006820F48020086008464068A8
:1008200020F4FE0048604FF41F008860FFF767FF68
:100830004FF000600449086010BD00000010024045
:100840000000FFF8FFFFF6FE08ED00E000BFFEE746
:10085000FFF7CCFEFFF7F6FCFFF726FD0CE0FFF7F5
:10086000BDFE012804D1FFF713FDFFF7E5FE03E00D
:10087000FFF704FDFFF7D6FEF1E700009C08000833
:10088000000000200400000028010008A008000863
:10089000040000206406000044010008000000007D
:04000005080000ED02
:00000001FF
