:020000040800F2
:10000000600600206D0100085505000891030008F6
:100010005105000827020008390800080000000008
:10002000000000000000000000000000E9060008D9
:100030002B0200080000000057050008D507000843
:100040008701000887010008870100088701000870
:100050008701000887010008870100088701000860
:100060008701000887010008870100088701000850
:100070008701000887010008870100088701000840
:100080008701000887010008870100088701000830
:100090008701000887010008870100088701000820
:1000A0008701000887010008870100088701000810
:1000B0008701000887010008870100088701000800
:1000C00087010008870100088701000887010008F0
:1000D00087010008870100088701000887010008E0
:1000E00087010008870100088701000800F002F876
:1000F00000F02CF80AA090E8000C82448344AAF196
:100100000107DA4501D100F021F8AFF2090EBAE893
:100110000F0013F0010F18BFFB1A43F0010318473B
:10012000D0070000E007000000230024002500267F
:10013000103A28BF78C1FBD8520728BF30C148BF4A
:100140000B6070471FB51FBD10B510BD00F031F832
:100150001146FFF7F7FF00F071FB00F04FF803B412
:10016000FFF7F2FF03BC00F057F800000948804792
:1001700009480047FEE7FEE7FEE7FEE7FEE7FEE789
:10018000FEE7FEE7FEE7FEE704480549054A064BA1
:1001900070470000D9070008ED000008600000204B
:1001A0006006002060020020600200207047704757
:1001B0007047754600F02CF8AE4605006946534678
:1001C00020F00700854618B020B5FFF7DDFFBDE839
:1001D00020404FF000064FF000074FF000084FF0AE
:1001E000000B21F00701AC46ACE8C009ACE8C0093F
:1001F000ACE8C009ACE8C0098D46704710B50446AC
:10020000AFF300802046BDE81040FFF7A8BF000014
:10021000004870470000002001491820ABBEFEE7EF
:1002200026000200704700BFFEE7704700B5034696
:1002300003E04FF47A7000F005F8181EA3F10103F3
:10024000F7D100BD00EBC001C9004FF0E0225161C1
:10025000002191610521116100BF4FF0E021096982
:1002600001F480310029F8D004214FF0E02211611F
:1002700070472DE9F04102460025002600200023AA
:100280000024002791F803C00CF00F0591F803C07B
:100290000CF0100CBCF1000F03D091F802C04CEA36
:1002A000050591F800C0BCF1000F31D014680020A2
:1002B0002BE04FF0010C0CFA00F3B1F800C00CEA8F
:1002C00003069E4220D183004FF00F0C0CFA03F777
:1002D000BC4305FA03FC4CEA040491F803C0BCF1EA
:1002E000280F06D14FF0010C0CFA00FCC2F814C024
:1002F0000AE091F803C0BCF1480F05D14FF0010CA2
:100300000CFA00FCC2F810C0401C0828D1D31460BD
:10031000B1F800C0BCF1FF0F34DD546800202EE0BE
:1003200000F1080C4FF0010808FA0CF3B1F800C016
:100330000CEA03069E4221D183004FF00F0C0CFA09
:1003400003F7BC4305FA03FC4CEA040491F803C02C
:10035000BCF1280F05D100F1080C08FA0CF8C2F81E
:10036000148091F803C0BCF1480F07D100F1080CCC
:100370004FF0010808FA0CF8C2F81080401C082859
:10038000CED35460BDE8F081416170470161704790
:1003900000BFFEE770B50546EF231A460021084668
:1003A00000F074F808210848FFF7EEFF002403E08E
:1003B000284600F0A9F8641CB4F5614FF8D3082171
:1003C0000148FFF7E3FF70BD000801402DE9F04749
:1003D00004460D4616461F46DDF820A0F02C00DB33
:1003E000EF24F02E00DBEF26F02D00DBEF25F02FC1
:1003F00000DBEF273B4632462946204600F046F810
:1004000008210C48FFF7C0FFA8460AE0A14604E017
:10041000504600F079F809F10109B145F8D908F121
:100420000108B845F2D908210248FFF7AFFFBDE83F
:10043000F08700000008014010B500F09DF800F0C2
:1004400013F87820FFF7F2FE112000F06DF8782005
:10045000FFF7ECFE01210348FFF798FF0020FFF7AC
:1004600099FF10BD000C014010B540210648FFF770
:100470008BFF6420FFF7DAFE40210348FFF786FF79
:100480006420FFF7D3FE10BD000801402DE9F041C4
:1004900004460D4616461F462A2000F045F8201255
:1004A00000F01EF8E0B200F01BF8301200F018F86F
:1004B000F0B200F015F82B2000F036F8281200F00A
:1004C0000FF8E8B200F00CF8381200F009F8F8B2B2
:1004D00000F006F82C2000F027F8BDE8F0810000BD
:1004E00010B5044608210748FFF74EFF10210548C4
:1004F000FFF74CFF204600F0A5F808210148FFF760
:1005000045FF10BD0008014010B504461021054804
:10051000FFF73CFF201200F095F8E0B200F092F8EF
:1005200010BD00000008014010B50446082107482E
:10053000FFF72AFF10210548FFF726FF204600F0AD
:1005400081F808210148FFF721FF10BD0008014094
:1005500000BFFEE77047704729B1064A926902431F
:10056000044B9A6104E0034A92698243014B9A6109
:10057000704700000010024000B587B0012141F231
:100580000C00FFF7E9FFA020ADF8040018208DF85B
:10059000070003208DF8060001A92748FFF769FE30
:1005A0005820ADF8040010208DF8070003208DF8C6
:1005B000060001A92048FFF75CFE0120ADF8040009
:1005C00010208DF8070003208DF8060001A91B48B4
:1005D000FFF74FFE4FF44040ADF808004FF4827033
:1005E000ADF80A000020ADF80C00ADF80E00ADF833
:1005F00010004FF40070ADF812000020ADF81400A8
:10060000ADF8160002A90E4800F050F801210C4880
:1006100000F032F808210848FFF7B8FE102106481C
:10062000FFF7B4FE01210548FFF7AEFE4021024866
:10063000FFF7ACFE07B000BD00080140000C014010
:100640000030014010B5044600BF0221094800F007
:100650001FF80028F9D02146064800F025F800BF11
:100660000121044800F014F80028F9D0014800F0F6
:1006700018F810BD0030014021B1028842F040025C
:10068000028004E002884FF6BF731A400280704770
:100690000246002013890B400BB1012000E000202E
:1006A00070470146888970478181704710B50022E4
:1006B000028802F441520B884C8823438C882343E0
:1006C000CC8823430C8923434C8923438C892343BF
:1006D000CC8923431A430280838B4FF2FF7423405B
:1006E00083830B8A038210BD704710B500F002F8B7
:1006F00010BD00000CB50020019000903348006848
:1007000040F480303149086000BF3048006800F490
:10071000003000900198401C0190009818B9019891
:10072000B0F5A06FF1D12948006800F4003010B195
:100730000120009001E0002000900098012843D1A2
:100740002348006840F0100021490860084600680E
:1007500020F0030008600846006840F002000860CE
:100760001A48406819494860084640684860084689
:10077000406840F4806048600846406820F47C107F
:1007800048600846406840F4E81048600846006841
:1007900040F08070086000BF0C48006800F00070F6
:1007A0000028F9D00948406820F003000749486054
:1007B0000846406840F00200486000BF03484068B7
:1007C00000F00C000828F9D10CBD00000010024018
:1007D000002002407047000010B51348006840F048
:1007E00001001149086008464068104908400E4958
:1007F0004860084600680E4908400B4908600846F2
:10080000006820F4802008600846406820F4FE005C
:1008100048604FF41F008860FFF767FF4FF00060EB
:100820000449086010BD0000001002400000FFF8FD
:10083000FFFFF6FE08ED00E000BFFEE71CB501215A
:100840000820FFF789FE0120ADF8040010208DF884
:10085000070003208DF8060001A92448FFF709FDD1
:10086000002410E001212148FFF790FD4FF496701D
:10087000FFF7DCFC01211D48FFF786FD4FF4967061
:10088000FFF7D4FC641C032CECDB01211748FFF7B5
:100890007DFDFFF7D1FD4FF4FA70FFF7C7FC24E0B0
:1008A00000240EE04FF6FF7004F108018AB20090B8
:1008B000A0B2E623C821FFF789FD3220FFF7B6FC7E
:1008C0000A34F02CEEDBF0240DE00020A2B2A4F1FB
:1008D0000801009088B2E623C821FFF777FD322097
:1008E000FFF7A4FC0A3C002CEFDCD9E7000C014028
:1008F0000009000800000020600600002801000830
:04000005080000ED02
:00000001FF
