:020000040800F2
:1000000070060020890100082D070008410600083D
:1000100045060008430200088D0A000800000000A1
:100020000000000000000000000000003D09000882
:10003000C104000800000000F9080008290A0008AF
:10004000A3010008A3010008A3010008A301000800
:10005000A3010008A3010008A3010008A3010008F0
:10006000A3010008A3010008A3010008A3010008E0
:10007000A3010008A3010008A3010008A3010008D0
:10008000A3010008A3010008A3010008A3010008C0
:10009000A3010008A3010008A3010008A3010008B0
:1000A000A3010008A3010008A3010008A3010008A0
:1000B000A3010008A3010008A3010008A301000890
:1000C000A3010008A3010008A3010008A301000880
:1000D000A3010008A3010008A3010008A301000870
:1000E000A3010008A3010008A301000800F002F822
:1000F00000F03AF80AA090E8000C82448344AAF188
:100100000107DA4501D100F02FF8AFF2090EBAE885
:100110000F0013F0010F18BFFB1A43F0010318473B
:100120000C1000002C100000103A24BF78C878C1D1
:10013000FAD8520724BF30C830C144BF04680C60ED
:10014000704700000023002400250026103A28BF35
:1001500078C1FBD8520728BF30C148BF0B60704739
:100160001FB51FBD10B510BD00F031F81146FFF7E7
:10017000F7FF00F09BFC00F04FF803B4FFF7F2FF2D
:1001800003BC00F057F800000948804709480047C1
:10019000FEE7FEE7FEE7FEE7FEE7FEE7FEE7FEE737
:1001A000FEE7FEE704480549054A064B7047000094
:1001B0002D0A0008ED0000087000002070060020E5
:1001C000700200207002002070477047704775462B
:1001D00000F02CF8AE4605006946534620F00700B3
:1001E000854618B020B5FFF7DDFFBDE820404FF091
:1001F00000064FF000074FF000084FF0000B21F011
:100200000701AC46ACE8C009ACE8C009ACE8C009DD
:10021000ACE8C0098D46704710B50446AFF30080C6
:100220002046BDE81040FFF7A8BF00000048704717
:100230000C00002001491820ABBEFEE7260002009A
:10024000704700BFFEE7000000F0805111B1034984
:10025000086001E002494860704700000404024061
:100260000000024021B1026842F00102026004E095
:1002700002684FF6FE731A400260704701684FF63D
:10028000FE72114001600021016041608160C16027
:100290004B49884208D14A490839496841F00F0161
:1002A000474A083A51608AE045491431884208D1EA
:1002B00043490839496841F0F001414A083A516020
:1002C0007DE03F492831884208D13D4908394968D5
:1002D00041F470613A4A083A516070E038493C3163
:1002E000884208D136490839496841F47041344A96
:1002F000083A516063E032495031884208D13049B0
:100300000839496841F470212D4A083A516056E095
:100310002B496431884208D129490839496841F498
:100320007001274A083A516049E0254978318842EE
:1003300008D123490839496841F07061204A083AD8
:1003400051603CE01F49884206D1011F096841F015
:100350000F01021F116032E01A491431884208D19E
:100360001849091F096841F0F001164A121F11606F
:1003700025E014492831884208D11249091F09682B
:1003800041F470610F4A121F116018E00D493C31B1
:10039000884208D10B49091F096841F47041094A94
:1003A000121F11600BE007495031884207D10549FF
:1003B000091F096841F47021024A121F1160704739
:1003C000080002400804024001460020002201F01B
:1003D000805313B1054B1A6801E0054B1A6802EA15
:1003E00001030BB1012000E000207047000402402F
:1003F0000000024010B50022026847F6F0739A43ED
:100400000C6A8B6823430C6923434C6923438C6932
:100410002343CC6923434C6A23438C6A23431A4306
:100420000260CB6843600B6883604B68C36010BD9B
:1004300000B58BB00121084600F060FA0E48FFF7C6
:100440001DFF0E4800900E480190002002900520EC
:100450000390402004908020059000200690079093
:1004600008904FF48050099080000A906946024835
:10047000FFF7C0FF0BB000BD80000240000000206D
:100480000500002010B500210B48FFF7EBFE052109
:10049000094800F013F801210748FFF7E3FE00BF09
:1004A0004FF00070FFF790FF0028F9D04FF0007078
:1004B000FFF7CAFE10BD0000800002404160704797
:1004C000704700B5034603E04FF47A7000F011F86E
:1004D000181EA3F10103F7D100BD10B5044603E0D7
:1004E0004FF47A70FFF7EDFF201EA4F10104F7D15D
:1004F00010BD00EBC001C9004FF0E02251610021A6
:1005000091610521116100BF4FF0E021096901F4FB
:1005100080310029F8D004214FF0E02211617047AA
:100520002DE9F0410246002500260020002300248A
:10053000002791F803C00CF00F0591F803C00CF0F0
:10054000100CBCF1000F03D091F802C04CEA050575
:1005500091F800C0BCF1000F31D0146800202BE0EE
:100560004FF0010C0CFA00F3B1F800C00CEA0306DE
:100570009E4220D183004FF00F0C0CFA03F7BC43CE
:1005800005FA03FC4CEA040491F803C0BCF1280FFF
:1005900006D14FF0010C0CFA00FCC2F814C00AE0BE
:1005A00091F803C0BCF1480F05D14FF0010C0CFAD3
:1005B00000FCC2F810C0401C0828D1D31460B1F868
:1005C00000C0BCF1FF0F34DD546800202EE000F1C4
:1005D000080C4FF0010808FA0CF3B1F800C00CEA5F
:1005E00003069E4221D183004FF00F0C0CFA03F753
:1005F000BC4305FA03FC4CEA040491F803C0BCF1C7
:10060000280F05D100F1080C08FA0CF8C2F8148084
:1006100091F803C0BCF1480F07D100F1080C4FF06E
:10062000010808FA0CF8C2F81080401C0828CED344
:100630005460BDE8F0810AB1016100E0416170479A
:1006400000BFFEE700BFFEE708B50121082000F06B
:1006500065F90121082000F061F914208DF80300EC
:1006600003208DF802004FF48070ADF80000694659
:100670000848FFF755FF8020ADF80000694605489F
:10068000FFF74EFF012000F03BF8012000F042F898
:1006900008BD0000000C014070B5054600240DE0C7
:1006A0008021214101EA050000F034F8012000F02A
:1006B00027F8002000F024F8601CC4B2082CEFDBFF
:1006C000012000F01DF8002000F01AF870BD10B5F0
:1006D000012000F01FF8012000F012F8002000F0C7
:1006E00019F8002000F00CF810BD10B5002000F043
:1006F00011F8012000F004F8012000F00BF810BD03
:1007000010B50446224680210148FFF794FF10BD32
:10071000000C014010B5044622464FF48071024897
:10072000FFF789FF10BD0000000C0140704770B555
:1007300000240EE00021204600F05CF8002504E0D3
:10074000002000F0C9F8681CC5B2802DF8DB601CE1
:10075000C4B2082CEEDB70BD10B5642000F098F92F
:10076000FFF772FFAE2000F0A7F8D52000F0A4F844
:10077000802000F0A1F8A82000F09EF83F2000F0B3
:100780009BF8D32000F098F8002000F095F8402066
:1007900000F092F8A12000F08FF8C82000F08CF84B
:1007A000DA2000F089F8122000F086F8812000F0AD
:1007B00083F8CF2000F080F8D92000F07DF8F120F8
:1007C00000F07AF8DB2000F077F8302000F074F8C1
:1007D000A42000F071F8A62000F06EF88D2000F043
:1007E0006BF8142000F068F8AF2000F065F8FFF710
:1007F0009EFF10BD70B505460C4605F0070141F09F
:10080000B00000F059F8102141EA141000F054F83B
:1008100004F00F0000F050F870BD00002DE9F04723
:1008200006460F461546701E40064FEA1068781EB1
:10083000C0064FEA106949464046FFF7DBFF002437
:1008400009E0A5F12001114A02EB0111085D00F059
:1008500043F8601CC4B2082CF3DB08F10101C8B2F4
:100860004946FFF7C7FF00240BE0A5F12001074A26
:1008700002EB011204F10801505C00F02DF8601C3D
:10088000C4B2082CF1DBBDE8F0870000340B00088F
:100890002DE9F04107460E461546002407E02A5D83
:1008A0003019C1B23846FFF7B9FF601CC4B2285DE9
:1008B0000028F4D1BDE8F08110B50446FFF707FF2A
:1008C0007820FFF7E9FE0020FFF7E6FE2046FFF75D
:1008D000E3FEFFF70AFF10BD10B50446FFF7F7FE71
:1008E0007820FFF7D9FE4020FFF7D6FE2046FFF71D
:1008F000D3FEFFF7FAFE10BD7047000029B1064A8B
:1009000052690243044B5A6104E0034A526982432C
:10091000014B5A61704700000010024029B1064A9D
:1009200092690243044B9A6104E0034A926982434C
:10093000014B9A617047000000100240704710B5EB
:1009400000F002F810BD00000CB5002001900090EE
:100950003348006840F480303149086000BF3048B7
:10096000006800F4003000900198401C019000984D
:1009700018B90198B0F5A06FF1D12948006800F4CA
:10098000003010B10120009001E00020009000989C
:10099000012843D12348006840F010002149086035
:1009A0000846006820F0030008600846006840F030
:1009B000020008601A4840681949486008464068C3
:1009C00048600846406840F48060486008464068D7
:1009D00020F47C1048600846406840F4E810486005
:1009E0000846006840F08070086000BF0C4800684E
:1009F00000F000700028F9D00948406820F003009A
:100A0000074948600846406840F00200486000BF5F
:100A10000348406800F00C000828F9D10CBD000024
:100A200000100240002002407047000010B513483B
:100A3000006840F00100114908600846406810490C
:100A400008400E494860084600680E4908400B49B6
:100A500008600846006820F4802008600846406866
:100A600020F4FE0048604FF41F008860FFF767FF26
:100A70004FF000600449086010BD00000010024003
:100A80000000FFF8FFFFF6FE08ED00E000BFFEE704
:100A9000002107E0002200E0521C42F210739A424B
:100AA000FAD3491C8142F5D370470000FFF754FE8A
:100AB000FFF7BEFC14A201210846FFF7E9FE21E082
:100AC000144815490A6802600979017113A20121CD
:100AD0000320FFF7DDFE0F4A08210320FFF7D8FEB1
:100AE0000120FFF7FAFCFFF7CDFC0FA20121032044
:100AF000FFF7CEFE074A08210320FFF7C9FE0120B9
:100B0000FFF7EBFCDCE70000444D412054657374B3
:100B10000000000005000020241100084265666FF7
:100B200072653A200000000041667465723A202028
:100B300000000000000000000000000000000000B5
:100B400000000000000000F800000000000000337A
:100B50003000000000100C06100C06000000000021
:100B60000000000040C07840C0784000043F04040A
:100B70003F040400007088FC08300000001820FFCB
:100B8000211E0000F008F000E018000000211C0306
:100B90001E211E0000F00888700000001E21232482
:100BA0001927211010160E000000000000000000A0
:100BB00000000000000000E0180402000000000730
:100BC0001820400000020418E00000000040201837
:100BD00007000000404080F0804040000202010F0A
:100BE00001020200000000F0000000000101011FEE
:100BF00001010100000000000000000080B0700052
:100C000000000000000000000000000000010101E1
:100C10000101010100000000000000000030300070
:100C2000000000000000000080601804006018064A
:100C30000100000000E010080810E000000F102084
:100C400020100F00001010F8000000000020203FCE
:100C50002020000000700808088870000030282458
:100C600022213000003008888848300000182020F9
:100C700020110E000000C02010F80000000704241E
:100C8000243F240000F80888880808000019212063
:100C900020110E0000E0108888180000000F1120BD
:100CA00020110E0000380808C83808000000003F76
:100CB000000000000070880808887000001C2221D5
:100CC00021221C0000E010080810E0000000312282
:100CD00022110F00000000C0C00000000000003022
:100CE0003000000000000080000000000000806074
:100CF00000000000000080402010080000010204F5
:100D000008102000404040404040400004040404DB
:100D10000404040000081020408000000020100897
:100D200004020100007048080808F00000000030CC
:100D300036010000C030C828E810E000071827245A
:100D400023140B000000C038E0000000203C230208
:100D50000227382008F8888888700000203F20206B
:100D600020110E00C030080808083800071820209D
:100D70002010080008F808080810E000203F202094
:100D800020100F0008F88888E8081000203F202075
:100D90002320180008F88888E8081000203F200069
:100DA00003000000C03008080838000007182020A1
:100DB000221E020008F808000008F808203F210160
:100DC00001213F20000808F8080800000020203F0B
:100DD0002020000000000808F8080800C08080807B
:100DE0007F00000008F888C028180800203F200174
:100DF0002638200008F8080000000000203F2020CE
:100E00002020300008F8F800F8F80800203F003FE4
:100E1000003F200008F830C00008F808203F2000FC
:100E200007183F00E01008080810E0000F1020200D
:100E300020100F0008F808080808F000203F2101E2
:100E400001010000E01008080810E0000F18242439
:100E500038504F0008F8888888887000203F2000AC
:100E6000030C302000708808080838000038202162
:100E700021221C00180808F8080818000000203F6C
:100E80002000000008F808000008F808001F2020D3
:100E900020201F000878880000C8380800000738A4
:100EA0000E010000F80800F80008F800033C0700F5
:100EB000073C0300081868808068180820302C035D
:100EC000032C30200838C800C83808000000203F34
:100ED0002000000010080808C83808002038262123
:100EE00020201800000000FE020202000000007F27
:100EF00040404000000C30C0000000000000000135
:100F00000638C00000020202FE000000004040401F
:100F10007F00000000000402020204000000000044
:100F200000000000000000000000000080808080C1
:100F300080808080000202040000000000000000A9
:100F40000000000000008080808000000019242242
:100F500022223F2008F8008080000000003F11207E
:100F600020110E000000008080800000000E112083
:100F700020201100000000808088F800000E112061
:100F800020103F200000808080800000001F22226F
:100F900022221300008080F0888888180020203FDB
:100FA000202000000000808080808000006B9494EE
:100FB0009493600008F8008080800000203F2100AA
:100FC00000203F2000809898000000000020203F73
:100FD00020200000000000809898000000C0808061
:100FE000807F000008F8000080808000203F2402FD
:100FF0002D302000000808F8000000000020203FED
:10100000202000008080808080808000203F2000A1
:101010003F20003F8080008080800000203F210032
:1010200000203F200000808080800000001F2020E2
:1010300020201F00808000808000000080FFA12011
:1010400020110E000000008080808000000E112022
:1010500020A0FF80808080008080800020203F21B1
:101060002000010000008080808080000033242464
:1010700024241900008080E0808000000000001F10
:10108000202000008080000000808000001F2020C1
:1010900020103F20808080000080808000010E3082
:1010A0000806010080800080008080800F300C03E3
:1010B0000C300F0000808000808080000020312EE6
:1010C0000E312000808080000080808080818E70C2
:1010D0001806010000808080808080000021302C74
:1010E0002221300000000000807C0202000000008D
:1010F000003F404000000000FF0000000000000032
:10110000FF0000000002027C800000000040403F21
:1011100000000000000601010202040400000000BB
:101120000000000044535400000000004C1100086F
:10113000000000200C0000002801000858110008E1
:101140000C000020640600004401000853524300D4
:08115000000000000000000097
:04000005080000ED02
:00000001FF
